:0200000470107A
:100400000000203495471070B9461070BB4610703C
:10041000BD461070BF461070C1461070C3461070C4
:10042000000000000000000000000000C546107041
:10043000C74610700000000045081070E9071070F2
:10044000F147107000000000F1471070F147107084
:10045000F1471070F1471070F1471070F1471070BC
:10046000F147107000000000F1471070F147107064
:10047000F1471070F1471070F14710700000000054
:10048000F147107000000000F1471070F147107044
:10049000F1471070F1471070F1471070F14710707C
:1004A000F1471070F1471070F1471070F14710706C
:1004B000F1471070F1471070F1471070F14710705C
:1004C000F1471070F1471070F1471070F14710704C
:1004D0000000000000000000F1471070F1471070AC
:1004E000F147107000000000000000000000000054
:1004F0000000000000000000F1471070D7461070A7
:10050000C94610700000000000000000000000005C
:10051000F1471070B9EB1070F1471070F14710708F
:10052000F1471070F1471070F1471070F1471070EB
:10053000F1471070F1471070F1471070F1471070DB
:10054000F1471070F1471070F1471070F1471070CB
:10055000F1471070F1471070F1471070F1471070BB
:1007400000000000F1471070F14710700000000039
:1007500010B5054C237833B9044B13B10448AFF3FB
:1007600000800123237010BDC0420034000000004F
:10077000BCB6117008B5034B1BB103490348AFF376
:10078000008008BD00000000C4420034BCB61170F7
:1007900072B64FF0E0201B49C0F8081D1A480168E6
:1007A00041F00101016019481649096801604FF0E4
:1007B000E020174941614FF0070101614FF000014E
:1007C000C0F8181D4FF07F41C0F81C1D1149C0F83A
:1007D000201D7047FFF7FEBF01B512F073FD12F048
:1007E000CFFDBDE80140704701B512F06BFD00F090
:1007F000A3F812F0C5FDBDE801407047FFF7FEBF4A
:10080000FFF7FEBF00041070001000E004A60034E3
:10081000FF340C000000FF404FF00000324A10602F
:10082000EFF3148020F0040080F3148862B64FF0D8
:1008300080504FF0E021C1F8040DBFF34F8FBFF39C
:100840006F8FFEE772B601B512F0F8FCBDE801400B
:1008500062B62648264A4FF00003016891B1036052
:10086000EFF3098C2CE9F00F1EF0100F01D12CEDE5
:10087000108A204C4CF804EDC1F808C025680DB171
:100880008D61236072B61168F1B1016062B64F6884
:10089000184C8D6907F101074F60256003B412F011
:1008A000A3FC03BCD1F80CC08CF30B88D1F808C0B2
:1008B0005CF804EB1EF0100F01D1BCEC108ABCE810
:1008C000F00F8CF30988704772B61168016009B99E
:1008D00062B6F9E74FF000674FF0E028C8F8047DF2
:1008E00062B6D4E77047000064A5003400A6003467
:1008F000FCA5003408A60034026922F00702A2F128
:1009000044026FF0020313604FF0000353609360E2
:10091000D360136153619361D36113625362936235
:10092000D362136353634FF0FF339363D1634FF08C
:1009300080731364826070472249086800F10100E7
:100940000860214B1A683AB1A2F101021A601AB983
:100950001E4B4FF0010018601D490868026822B163
:100960001C4B4FF001021A6008E000F104001A4B22
:100970001A68904201D1194B18680860134B1A6825
:1009800012B914490868C8B101B51249086808B11C
:1009900012F0C6F80D4B1A6872B112F069F81048DF
:1009A000016849B90F4801680F4A13680F484FF0B2
:1009B0008052994200D00260BDE80140BFF34F8FE2
:1009C0007047000078AB003408A6003474AB0034E4
:1009D000E8AA0034E4AA0034ECAA0034F0AA0034F7
:1009E00064A5003400A60034FCA5003404ED00E04A
:1009F00090EDAD6A30B52DED108B90EDA87BB5EE86
:100A0000C06A87B08DED027B002390EDA47BF1EEF0
:100A100010FA91ED015A91ED004A91ED02FB91ED32
:100A200004EB044690ED123B90EDAACB90ED16AB93
:100A30008DED047B90EDA6BB80F8603009DCD0F82A
:100A4000C832D14898474FF0FF3007B0BDEC108B4B
:100A500030BDB8EE455B9FEDBE7BB8EE444B25EE56
:100A6000077BB4EEC47BF1EE10FA0FDD90ED1C7B3A
:100A70009FEDB92B37EE022B9FEDB97BB4EEC72B60
:100A8000F1EE10FA37FE027B80ED1C7B9FEDB67B0A
:100A900025EE075BB4EEC45BF1EE10FA10D594EDD1
:100AA0001C7B9FEDAD5B37EE457B9FEDB15BB4EEFC
:100AB000C57BF1EE10FA58BFB0EE475B84ED1C5BCE
:100AC00083EE0C8BBCEEC88BB8EE488B94F850507C
:100AD00028EE0C8B012DB7EEC66A40F0AC809FED7E
:100AE000A67B3FEE4E5B85EE07DB3FEE0E5B85EEB1
:100AF000079BB0EECD7BB4EEC76BF1EE10FAB0EE13
:100B0000C95B1FDBB4EEC56BF1EE10FA1ADB0023F4
:100B100084F8783094ED1A7BB5EEC07BF1EE10FAD4
:100B200040F33481012384F860309DED027BB4EE04
:100B3000C7ABF1EE10FA40F13C819DED047B3AEE3B
:100B400007BB28E1B4EEC56BF1EE10FA0CD589EEC7
:100B50000D5B94EDAE6AB0EEC55BB7EEC66AB4EE5F
:100B6000C65BF1EE10FAD5DAF7EECA0BB7EEC70B9B
:100B700019F0D6FDB2EE047BB7EEC00A20EE070BEB
:100B8000FCEEC87BB0EECE6BCDED017AB0EECF7B44
:100B9000B4EEC67BF1EE10FA62DCB5EEC0EBF1EE1E
:100BA00010FA62D538EE000B94ED3C7BB4EEC07BBE
:100BB000F1EE10FA03D5B0EE4BABB0EE470B94ED6F
:100BC0003A7BB4EEC07BF1EE10FA03DDB0EE4BAB36
:100BD000B0EE470B80EE0C8BBCEEC88BB8EE488BAA
:100BE000012D2CEE088B16D1B4F8E030022B3FD843
:100BF000DDED017AB8EE677B04EBC30282ED207B6A
:100C000082ED268B04EB0312013382ED2CDB82EDA7
:100C10002E9BA4F8E03094F87830012B07D0FCEE3E
:100C2000C87B17EE903A019A93423FF473AF0123C9
:100C300084F860306EE7B0EECF7BB0EECE5BB4EE02
:100C4000475BF1EE10FA35FE077BB4EEC67BF1EEA2
:100C500010FA7FF65FAF9FED4A9BB0EE49DB83E76A
:100C6000B5EEC0FBF1EE10FA9CD538EE400B9BE7D9
:100C700094ED2A7B94EDAF6A38EE477BB7EEC66AF7
:100C8000B0EEC77BB4EEC67BF1EE10FA56DB94ED06
:100C9000287B38EE477BB0EEC77BB4EEC76BF1EE36
:100CA00010FA4BDD94ED320B94ED307B39EE400BB6
:100CB0003DEE477B20EE000BA7EE070B18F0F8FE89
:100CC00094EDB07AB7EEC77AB4EEC70BF1EE10FA36
:100CD00034D5DDED017AB8EE678B84F8785094F85E
:100CE0007830002B97D1102204F1880104F18000A4
:100CF00016F0E2FD102204F1A00104F1980016F0B4
:100D0000DBFDD4E93023DDED017AB8EE677BC4E981
:100D10002C23D4E9322384ED247BC4E92E23D4E9A7
:100D2000342384ED2A8BC4E93023D4E9362384EDBF
:100D300034DB84ED369BC4E932236CE794F87830D9
:100D4000012B04BF002384F87830C8E7AFF300809C
:100D50009A9999999999A93F7B14AE47E17A843F72
:100D6000343333333333C33F333333333333C33F1A
:100D7000111111111111B13FCD3B7F669EA0F63FBD
:100D8000000000000000000068721F7094F86030DE
:100D9000002B7FF4CAAE88EE0C7BBCEEC77BB8EEAE
:100DA000477B27EE0C7B84ED16BB84ED127B012084
:100DB0004BE69DED02BBEEE790ED1A6BB5EEC06B16
:100DC00090ED124BF1EE10FA90EDAA5BB0EE467B7F
:100DD000DFBF84EE057BBCEEC77BB8EE477B27EE1A
:100DE000057BB7EEC77B90ED3C5BB7EEC74AB4EE30
:100DF000C54BF1EE10FAC8BFB7EEC57B90ED3A5B7C
:100E0000B7EEC74AB4EEC54BF1EE10FA48BFB7EEE5
:100E1000C57BB7EEC75AD0F8743230B580ED125B9F
:100E200093ED005AD0EDAC7AB4EEC75AF1EE675AA2
:100E3000F1EE10FA4FF00001B0F8F83075FEA77A25
:100E4000013B8AB2934205D8442202FB030303F517
:100E5000907311E000EB8204D4ED445A77EEA55A6A
:100E6000F4EEC75AF1EE10FA01F10101E9DB442377
:100E700003FB020202F59073B5EEC06BF1EE10FABF
:100E8000C0F8743205DC93ED007AB7EEC77A80EDD6
:100E9000127B5A6803F1380142609A6803F1240416
:100EA0008260DA68C2601A69026100F138025D6925
:100EB0000C334561DD680C30C5601D69A3420561D6
:100EC00051F8045B42F8045BF1D1012030BD10B54C
:100ED000044690B070B10023084C40212370C4F840
:100EE000C802074B6846074A16F0A2FB6846D4F8CA
:100EF000C8329847204610B010BD00BFE042003411
:100F0000E8A81F70A8721F70002814BF01204FF0BE
:100F1000FF30704780ED000A30B50C6844604C68C3
:100F200084608C68C460C96802F12404016100F126
:100F3000380115680C32456152F8085C0C30C56008
:100F400052F8045CA242056153F8045B41F8045B6B
:100F5000EFD130BD2DE9F04F2DED068B0E46B0EEF2
:100F6000409BB0EE418B1D460446C7B0002800F000
:100F70008F819FEDCBAB80ED12AB0020CE494FF0BF
:100F80000008C4E91601C4E9A601C4E9AA01CB49D5
:100F9000DFF85C93C4F8B0124FF07E51C4F8B4127D
:100FA0004FF07C51C4E91A890FF2FC29D9E9008974
:100FB000C4E91C89C4E9A4894FF00008C4F8B81238
:100FC000BF49DFF83093C4F8BC124FF07F510023C3
:100FD000C4E9A88901274FF00008C4F8C012711EA7
:100FE000DFF8149388B20428C4E9A0890FF2C0295D
:100FF000D9E9008984F86030C4E9A289A4F8E03016
:1010000084F87830A4F8787214D905234FF48071ED
:10101000AC4A06A816F00CFBD4F8C83206A89847CC
:1010200084F85070204647B0BDEC068BBDE8F04F09
:10103000FFF7C2BE95ED007AB7EEC77AB4EEC70BE4
:10104000F1EE10FA12DDD4F8C8329F48984795EDBA
:10105000007AB7EEC77A8DED009B8DED027B9B4A3F
:101060004FF4807106A816F0E3FAD5E74FF0440C70
:101070000CFB065818ED117AB7EEC77AB4EEC71B11
:10108000F1EE10FA41D5D4F8C8329148984798ED5E
:10109000007AB7EEC77A8DED008B8DED027B8D4A1D
:1010A000DEE70CFB08F705EB070944372F4499ED01
:1010B000007AD7ED007AB4EEE77AF1EE10FA08F193
:1010C000010A00F1010021DBD4F8C83282489847B8
:1010D00097ED007AB7EEC77A8DED047BCDF808A0C6
:1010E00099ED007AB7EEC77A43468DED007B7B4AD7
:1010F0004FF4807106A816F09BFAD4F8C83206A8FF
:101100009847012384F850308CE718461FFA80F87E
:101110004145C6D800234FF0440CB01E9FB2B942DF
:1011200039D884ED3A9B84ED3C8B0020A4F8F8601C
:1011300083B2994200F1010000F28B800027B8468B
:1011400004F1FC0A04F5907905EB070B09EB0700A5
:101150004422594616F061FEDBF8003008F1010820
:101160004AF8043B1FFA88F39E4207F14407EBD884
:10117000731E9BB2002E03F1010314BF1A46012215
:10118000C4F8749204F5B271013A6AD1012384F86B
:101190005030237046E702EB8709B842D9ED007A58
:1011A0004FEA870807F1010A1ED908F104089044A4
:1011B00098ED007AB4EEE77AF1EE10FA14D8D4F88C
:1011C000C8324748984798ED007AB7EEC77A8DED58
:1011D000047BCDF808A099ED007AB7EEC77A3B46BC
:1011E0008DED007B3F4A83E70CFB07F805EB080A0F
:1011F0009AED007AB4EEE77AF1EE10FA08F14408BD
:10120000A84408DA98ED007AB4EEE77AF1EE10FA25
:1012100003F1010382D8D4F8C8323348984798EDD7
:10122000007AB7EEC77A8DED047B9AED007AB7EEBF
:10123000C77A8DED027B99ED007AB7EEC77A3B460F
:101240008DED007B4FF48071284A06A816F0F0F966
:1012500053E702EB83073F6804EB8303C3F8107185
:1012600066E7D4F8743291ED006A93ED007AB7EE38
:10127000C66AB7EEC77A36EE4A6B37EE4A7BB4EEF3
:10128000C76BF1EE10FA48BFC4F8741244317BE723
:101290004FF0FF3047B0BDEC068BBDE8F08F00BFCC
:1012A000000000000088B3409A9999999999B93F34
:1012B0000000000000A06E400000F03F0000484227
:1012C00000002F43B8721F70FC721F7083731F7071
:1012D000E1731F7069741F70C6741F702A751F70C8
:1012E00082751F70F1751F705B761F70B2761F706C
:1012F0000000F0BF000008400000244030B5054663
:1013000014468DB052B9D0F8C8321D489847D5F868
:10131000C8321C48984720460DB030BD93ED042BD1
:1013200093ED021B93ED000B0AAA08A906A800F092
:101330002FF8DDE90823CDE90223DDE90A23CDE911
:101340000423012398420446CDE90033DFD16946E6
:101350002846FFF74DFB0128044603D0D5F8C832D4
:101360000948D7E795F86030012BD4D12846FFF71C
:1013700023FD01280446CED0D5F8C8320348C9E77A
:1013800038771F7099771F70C2771F70F6771F70BC
:10139000B5EEC00BF1EE10FA1FB509D4B5EEC01BC7
:1013A000F1EE10FA04D4B5EEC02BF1EE10FA0DD523
:1013B0008DED022B8DED001B53EC102B444816F0E5
:1013C00013F84FF0FF3005B05DF804FB9FED327B62
:1013D000B4EEC70BF1EE10FA09DCB4EEC71BF1EE68
:1013E00010FA04DCB4EEC72BF1EE10FA07DD8DED38
:1013F000022B8DED001B53EC102B3648DFE728B194
:1014000089B1B2B93449354B084607E071B1334967
:101410003148002A304A314B18BF13460246304843
:1014200015F0E2FFCDE72C492C48F2E72B4908469E
:10143000EFE79FED1B7B9FED1C6B21EE077BB3EE6F
:10144000005BA0EE067B9FED1A6BA2EE057BA7EE7C
:10145000065B9FED197B80ED005B27EE417BBBEEC9
:101460000A5BA0EE057B9FED165BA2EE057B27EEE7
:10147000067B81ED007B9FED147B27EE411BB2EED6
:10148000047BA0EE051BA2EE471B21EE061B0120EC
:1014900082ED001B97E700BF0000000000E06F40F6
:1014A0000000000000A063400000000000804740F2
:1014B000000000000000703F000000000080554068
:1014C0000000000000005C40000000000080594067
:1014D0002B781F7069781F70F4C01170F2C0117002
:1014E000A9781F700000000010B5044690B060B1EC
:1014F0000023074C40212370A065064B6846064A2E
:1015000016F096F86846A36D9847204610B010BDB7
:10151000B0450034EEA81F70F3781F70002814BF88
:1015200001204FF0FF30704738220A23C0E904231E
:1015300064232D227821C0E9063240F2DC5230B516
:10154000C0E9081241F2707442F6E062C0E90A4252
:101550000BA5D5E9004505224FF0000C026548F2C5
:10156000E802C0E910C20122C0E90C4506A5D5E990
:101570000045C0E91223C0E90E4530BDAFF300803D
:1015800000000040E17A943F000000E04D62703FAF
:1015900010B5044620B1FFF7C7FF0120207010BD31
:1015A0004FF0FF30FBE72DE9F0410E4604460028DE
:1015B00000F0E180017801290BD102210170A56CB6
:1015C000C4E90126B54208D2616C914205D9A560F3
:1015D0004CE00229F3D0002049E0D4F810C0B6EE68
:1015E000005B07EE90CAB8EE676A07EE903AB8EE75
:1015F000E77BB7EEC66A37EE057B86EE070B216DFB
:10160000B7EEC00B8B424BD2F0EE007AB4EEE70A95
:10161000F1EE10FA44D4616CB7EE007A8A4220D21F
:10162000012A134638BF012307EE903AF8EEE77A15
:1016300067EE807AFDEEE77A17EE903A8B42C1BFF3
:1016400007EE901AB8EEE76A07EE902AF8EE676A9E
:10165000C3BFC6EE267A0B4680EE270AB0EE470AD5
:101660006360B4EEC70AF1EE10FA02DC0120BDE8B7
:10167000F081B7EEC00A18F0E7F9B3EE047B20EE74
:10168000070B9FED3F7B20EE070BBDEEC00B10EE6E
:10169000103AE26C33449342D4BFA360A260E5E702
:1016A000ACEB0307E16987EAE770A0EBE7708842DB
:1016B00047D8606AD4F814E0A1690EEB0C0898458D
:1016C00007FB01F143D207EE900A9FED2F7AF8EE67
:1016D000E77A67EE877A07EE101AF1EE676AB8EEDE
:1016E000C77AB4EEE67AF1EE10FA04D5FDEEE77AA9
:1016F00017EE903A59420029B8D0B54232D1606C09
:10170000904201D800292DDA02FB077707EE902AD4
:1017100006EE907A0029B8EEE77BB8EEE66B1EDAAB
:1017200094ED0E5BA5EE067BBDEEC77B17EE102A8F
:10173000236C9A42B8BF1A468242D4BF626060608E
:1017400094E7216A88422CBFE06AA06AB2E7ACEB5A
:101750000E0C9C458ADD8142A8BF0146CBE794ED83
:101760000C5BDFE70E44B5423FF731AFE56CB542A5
:10177000A8BF35462BE74FF0FF3078E7AFF3008086
:101780000000000000408F409A99593F034613F82B
:10179000012B002AFBD1181A0138704781F0004153
:1017A00002E000BF83F0004330B54FEA41044FEA46
:1017B000430594EA050F08BF90EA020F1FBF54EAE1
:1017C000000C55EA020C7FEA645C7FEA655C00F07D
:1017D000E2804FEA5454D4EB5555B8BF6D420CDD4E
:1017E0002C4480EA020281EA030382EA000083EAD1
:1017F000010180EA020281EA0303362D88BF30BD71
:1018000011F0004F4FEA01314FF4801C4CEA1131C6
:1018100002D0404261EB410113F0004F4FEA033325
:101820004CEA133302D0524263EB430394EA050FB0
:1018300000F0A780A4F10104D5F1200E0DDB02FA1F
:101840000EFC22FA05F2801841F1000103FA0EF2B3
:10185000801843FA05F359410EE0A5F120050EF179
:10186000200E012A03FA0EFC28BF4CF0020C43FAAA
:1018700005F3C01851EBE37101F0004507D54FF0B7
:10188000000EDCF1000C7EEB00006EEB0101B1F507
:10189000801F1BD3B1F5001F0CD349085FEA30004D
:1018A0004FEA3C0C04F101044FEA445212F5800F58
:1018B00080F09A80BCF1004F08BF5FEA500C50F1F5
:1018C000000041EB045141EA050130BD5FEA4C0CD8
:1018D000404141EB0101013C28BFB1F5801FE9D235
:1018E00091F0000F04BF01460020B1FA81F308BF58
:1018F0002033A3F10B03B3F120020CDA0C3208DD24
:1019000002F1140CC2F10C0201FA0CF021FA02F1FE
:101910000CE002F11402D8BFC2F1200C01FA02F16E
:1019200020FA0CFCDCBF41EA0C019040E41AA2BF93
:1019300001EB0451294330BD6FEA04041F3C1CDA5B
:101940000C340EDC04F11404C4F1200220FA04F07B
:1019500001FA02F340EA030021FA04F345EA030125
:1019600030BDC4F10C04C4F1200220FA02F001FAE7
:1019700004F340EA0300294630BD21FA04F0294669
:1019800030BD94F0000F83F4801306BF81F4801102
:101990000134013D4EE77FEA645C18BF7FEA655C75
:1019A00029D094EA050F08BF90EA020F05D054EA47
:1019B000000C04BF1946104630BD91EA030F1EBF4C
:1019C0000021002030BD5FEA545C05D14000494150
:1019D00028BF41F0004130BD14F580043CBF01F543
:1019E000801130BD01F0004545F0FE4141F4700129
:1019F0004FF0000030BD7FEA645C1ABF1946104604
:101A00007FEA655C1CBF0B46024650EA013406BF04
:101A100052EA033591EA030F41F4002130BD00BFC3
:101A200090F0000F04BF0021704730B54FF4806480
:101A300004F132044FF000054FF0000150E700BF01
:101A400090F0000F04BF0021704730B54FF4806460
:101A500004F1320410F0004548BF40424FF000014D
:101A60003EE700BF42004FEAE2014FEA31014FEA90
:101A700002701FBF12F07F4393F07F4F81F06051DF
:101A8000704732F07F4208BF704793F07F4F04BF2A
:101A900041F40021704730B54FF4607401F0004507
:101AA00021F000411CE700BF50EA010208BF704767
:101AB00030B54FF000050AE050EA010208BF704758
:101AC00030B511F0004502D5404261EB41014FF4C1
:101AD000806404F132045FEA915C3FF4D8AE4FF0C9
:101AE00003025FEADC0C18BF03325FEADC0C18BFAC
:101AF000033202EBDC02C2F1200300FA03FC20FAFD
:101B000002F001FA03FE40EA0E0021FA02F1144449
:101B1000BDE600BF7BB972B90029BEBF00204FF0FF
:101B2000004106E008BF00281CBF6FF000414FF0E5
:101B3000FF3000F0C9B9ADF1080C6DE904CE002901
:101B400009DB002B1ADB00F04DF8DDF804E0DDE9DD
:101B5000022304B07047404261EB4101002B1BDBC4
:101B600000F040F8DDF804E0DDE9022304B0404273
:101B700061EB4101524263EB43037047524263EB16
:101B8000430300F02FF8DDF804E0DDE9022304B0A0
:101B9000404261EB41017047524263EB430300F066
:101BA00021F8DDF804E0DDE9022304B0524263EBE2
:101BB0004303704753B94AB9002908BF00281CBF26
:101BC0004FF0FF314FF0FF3000F07EB9ADF1080C5F
:101BD0006DE904CE00F006F8DDF804E0DDE902234B
:101BE00004B070472DE9F04F099D0C46002B4DD1F4
:101BF0008A420F4684469646B2FA82F360D94BB1C8
:101C000002FA03FEC3F120029F4000FA03FC20FA0F
:101C100002F217434FEA1E461FFA8EF44FEA1C42A7
:101C2000B7FBF6F106FB117701FB04F042EA07422D
:101C3000904208D91EEB020201F1FF3702D2904216
:101C400000F22D813946121A1FFA8CFCB2FBF6F015
:101C500006FB102200FB04F44CEA024C644508D950
:101C60001EEB0C0C00F1FF3202D2644500F21A8127
:101C7000104640EA0140ACEB040C002125B12CFADF
:101C800003F30022C5E90032BDE8F08F8B4205D98D
:101C90000DB1C5E9000100210846F5E7B3FA83F16B
:101CA00000294DD1A342C0F0F280904280F0EF8035
:101CB000064623460846002DE6D0C5E90063E3E763
:101CC000002B40F0A2808A1A4FEA1E471FFA8EF6B8
:101CD0000121B2FBF7F407FB14204FEA1C4242EA51
:101CE000004206FB04F090420FD91EEB020204F101
:101CF000FF382CBF4FF001094FF00009904203D983
:101D0000B9F1000F00F0C8804446121A1FFA8CFC8B
:101D1000B2FBF7F007FB102200FB06F64CEA024C80
:101D2000664508D91EEB0C0C00F1FF3202D2664565
:101D300000F2BB801046ACEB060C40EA04409DE785
:101D4000C1F120068B4004FA01FE22FA06F720FAC0
:101D500006FCF4408A401F434EEA0C0300FA01FEE1
:101D60004FEA17484FEA13491FFA87FCB4FBF8F013
:101D700008FB104449EA044400FB0CF9A1450ED9C4
:101D80003C1900F1FF3A2CBF4FF0010B4FF0000B54
:101D9000A14503D9BBF1000F00F093805046A4EB9E
:101DA00009041FFA83F9B4FBF8F308FB134403FB9F
:101DB0000CFC49EA0444A44506D93C1903F1FF3858
:101DC00001D2A4457AD8434643EA0040A4EB0C0470
:101DD000A0FB02984445CC46434602D306D1CE45EB
:101DE00004D20138B9EB020C68EB07035DB1BEEB1E
:101DF0000C0264EB030404FA06F622FA01F3CC4069
:101E00001E43C5E9006400213EE702FA03FEC3F168
:101E1000200104FA03F200FA03FCCC404FEA1E470B
:101E200020FA01F11FFA8EF6B4FBF7F00A4307FB24
:101E30001044110C41EA044100FB06F48C420ED917
:101E40001EEB010100F1FF382CBF4FF001094FF0EC
:101E500000098C4202D9B9F1000F2CD04046091B71
:101E600092B2B1FBF7F407FB141142EA014204FB02
:101E700006F1914207D91EEB020204F1FF3801D2AC
:101E8000914215D84446521A44EA004121E7861A85
:101E900064EB030301200EE7023C724435E702398C
:101EA0007244D0E6F4440238E3E6F444023842E7F0
:101EB000023C7244E7E702387144D0E7023B3C44FD
:101EC00082E702383C446AE7704700BF027D4368FE
:101ED00002B11B6880681844704730B54FF0070E98
:101EE0000B684EF001E003604B684C6943608B68FF
:101EF00045698360CB68C3600B690361002305EB10
:101F0000C30204EBC30103C9013382E803000FF0ED
:101F10000BC030BD08B5044C4FF0FF31204611F026
:101F20008DF801F0C9F9F7E7487C003470B52DED64
:101F30000E8B90ED04DAB7EECDDA0D46B0EE4D0B18
:101F400090ED03EA90ED02BA0446164617F0D0FD74
:101F500095ED007AB6EE00CBB7EEC77A95ED019A13
:101F6000B7EECBBA94ED008A37EE4C7BB7EEC99A48
:101F700027EE0B7BB7EEC88A39EE4C9BB7EECEEA64
:101F8000A7EE008BB0EE40ABB0EE4D0B17F0FCFDB2
:101F900029EE0E9BA9EE408BB7EEC88B86ED008A2A
:101FA00095ED006AB7EEC66A94ED017A36EE4C6B99
:101FB000B7EEC77A26EE0B6BA0EE067BAAEE097B86
:101FC000BDEC0E8BB7EEC77B86ED017A70BD0000CD
:101FD00008B50021074801F073F848B101F061F934
:101FE000044801F0A0F8044B044A1B68013B13604D
:101FF00008BD00BF64480034FC460034F846003495
:1020000008B501F0C9FC01F0B9FC01F03AF9024A47
:1020100013680133136008BDFC460034014811F019
:102020002DB800BF487C00342DE9F04F0024ADF5F9
:10203000097D4FF0FF31CA4811F000F84FF0FF3131
:10204000C84810F02BFF4FF48072C74948A815F01C
:10205000E4FEC44810F054FF4C9402F029FB0390B6
:1020600001F0C2FC0021002308464FF4487200939F
:102070004FF4F07312F0C8F9BC4801F071F9002375
:1020800006AA1946B94801F0A7F911F0F1FE00219E
:1020900002220846B64B02F03FF911F0E9FE9DED31
:1020A000067AB7EEC77AC18802228DED007BB14B6C
:1020B000002002F031F911F0DBFEC1880222AE4BA4
:1020C00001EB4101002002F027F911F0D1FE0222BC
:1020D000C188499B914000200093A84B02F01CF955
:1020E00011F0C6FE4A9BC188022201EB810100204B
:1020F0000093A34B02F010F911F0BAFEC18802223E
:10210000A04BC1EBC101002002F006F911F0B0FEB6
:102110009DED487A9FED905BB7EEC77A85EE076B31
:10212000C18802228DED006B974BC900002002F0A0
:10213000F3F811F09DFEC1880A2002224143934B1F
:10214000002002F0E9F811F093FE0B239DF83C51BA
:10215000C48828465C4301F035FB214602228C4BA3
:102160000090002002F0D8F811F082FE0C23C48801
:1021700028465C4301F042FB21460222854B009039
:10218000002002F0C9F811F073FEC1880D209DF8FF
:10219000443141430222002000937F4B02F0BCF8FF
:1021A00011F066FE0E23C488509D5C4301F034FBA1
:1021B00021460222CDE90050784B002002F0ACF815
:1021C00011F056FEC1880222754B0901002002F071
:1021D000A3F811F04DFE9DF83D51C188284601EB52
:1021E000011401F0EFFA9DF83E316E4A002B6E4B60
:1021F00018BF134621460222CDE900036B4B002095
:1022000002F08AF811F034FE1223C48828465C4399
:1022100001F0E6FA214602225E4B0090002002F017
:102220007BF811F025FE9DF84531614A002BC188ED
:10223000604B4FF0130018BF134641430093022236
:1022400000205D4B02F068F84FF000085EAC09AD6D
:102250004D9B984506DB01F0DDFB02F029FA039B5C
:10226000C41AE6E654F8303C002B6FD00DF1CC09CF
:10227000CB4621460026CA46A4F1140007AACDE9A0
:102280000401FFF753FEDDED077AFDEEE77A17EE66
:1022900090CADDED087AFDEEE77A624617EE90EA25
:1022A000022AB8BF022240F21D377346BA42A8BFC5
:1022B0003A46022BB8BF022340F2DD17BB42A8BF4B
:1022C0003B461EAF47F82630BEEB030318BF012381
:1022D000944518BF0123059945F826200136152E8F
:1022E00004984BF8043B01F10801C7D1002659F8C6
:1022F000043B43B96FF0FF03022257F8261055F84C
:10230000260012F0D3F80136152EF0D14FF0000957
:102310004FF07F4B294E30685AF820307BB97268F5
:102320005AF822305BB9CDF800B057F8223057F890
:10233000201055F8222055F8200011F061FF09F116
:102340000109B9F1150F06F10806E4D108F10108F9
:10235000D8347DE7AFF300800000000000408F40DC
:10236000B4480034D44800340849003418460034D6
:102370004FB9117058B911705FB9117069B9117006
:1023800072B911707BB911707FB9117084B9117075
:1023900089B911708EB9117091B911709CB9117011
:1023A000A6B9117040B9117043B91170ADB911706F
:1023B00048B911704BB91170B3B91170B0BD11703B
:1023C00010B52DED0C8B90ED04CAB7EECCCA0446C7
:1023D000B0EE40AAF0EE609AB0EE4C0BD0ED02DA0F
:1023E000B0EE41DA17F084FB94ED039A9FED1CBA2E
:1023F00029EE0AAAB0EE408BB0EE4C0B17F0C4FBEE
:10240000B7EECAAA2DEE8BBA20EE4A7BB7EECBBA56
:10241000ABEE087B28EE0A8BB7EEC77BD4ED007AD3
:10242000F4EE49DAABEE008B77EE877AF1EE10FA34
:10243000B7EEC88BC4ED007AD4ED017A3DFE899ADF
:1024400069EE299A77EE887A29EE0D9AC4ED029A00
:1024500084ED039ABDEC0C8BC4ED017A10BD00BF76
:1024600000000000000000002DE9F04F2DED0A8B68
:10247000ADF5177D11F08EFC044611F087FCD0E914
:10248000022320469B1A4793FFF720FDD4E902233D
:1024900048909B1A04F138004993FFF717FDD4E9DF
:1024A00010234A909B1A4CA84B9301F0DFFA11F0CD
:1024B0002BF9044611F024F90146FFF707FDD1E995
:1024C00002320546D31A04F170000A93FFF7FEFCAE
:1024D000D4E91E320790D31A04F1A8000C93FFF739
:1024E000F5FCD4E92C320024DFEDD18AD31A089010
:1024F00010A80D9301F07AF839AB2593CDE9134478
:10250000159402F0D5F8A346B0EE689A2646B0EED0
:10251000688A21460746C74800F0D2FD214600F0F0
:10252000BBFE099402F0C4F8C31B07EE903AB2EE6A
:102530000E7AF8EE677AE8EE077A9FEDBF8A0B9085
:10254000BC4827EE888A00F0D8FDBC4B8146D3F802
:102550000080002E40F0AA8402F0AAF84946479A6B
:102560000746304611F0A6FBB5480BF03FFF489BED
:10257000022156934A9B54AA579356A84CAB01F09C
:102580009DFA559B002B14BF0126002600F09C806D
:10259000549BDFEDAC7AD3ED015A93ED026AD3ED93
:1025A000036A93ED047A65EEA75A26EE276A66EE73
:1025B000A76A27EE277A4FF0070E5A69C3ED015A32
:1025C00083ED026AC3ED036A83ED047A4EF001E005
:1025D000134693ED005A25EE275A83ED005A93EDEA
:1025E000015A25EE275A083303ED015A0FF00FC8A0
:1025F000DFF8609292ED050A89ED037A92ED017A97
:10260000D2ED007A30EE470AD2ED040AB1EE400A6C
:1026100070EEE70AC9ED005A89ED016AC9ED026A58
:1026200017F0FEFA9FED747BB7EEC00A37EE407BE1
:10263000B7EEC77B9FED725BB7EEC77A9FED724B2B
:1026400037EE055B85EE046BB7EEC66BBBFE466AE4
:10265000B7EEC66AA6EE447BB7EEC77B9FED6C6B08
:10266000B7EEC77AB4EEC67BF1EE10FA4FF0000A6F
:1026700080F216849FED686BB4EEC67BF1EE10FA23
:1026800080F211849FED665BB4EEC57BF1EE10FA2B
:1026900006EE90AA0BDA9FED646BB4EEC67BDFED1D
:1026A0006A6AF1EE10FADFED697A66FEA76A9FEDBD
:1026B000681ABEEE000AF0EE410A6648C9ED046AE7
:1026C000FFF77EFEC9F810A0499A002A1DDD489B3D
:1026D00003F01F001044BFF34F8FDA4303EB000CED
:1026E000624420385209203002F1010ED8BF4FF069
:1026F000010E4EF001E05849C1F85C3220330FF072
:1027000005C8BFF34F8FBFF36F8F4B9A002A1DDDB3
:102710004A9B03F01F001044BFF34F8FDA4303EBD3
:10272000000C624420385209203002F1010ED8BF5B
:102730004FF0010E4EF001E04749C1F85C32203302
:102740000FF005C8BFF34F8FBFF36F8F01F0B0FFDD
:10275000549BC01B1B68209307EE900AF1EE0CAA55
:10276000F8EE677AB4EE00AAE9EE2A7A314827EE4D
:102770008A9A00F0C0FC002E00F0BA8301F098FFA6
:1027800008F0030A0F90504601F0EEF8314BF6EED8
:10279000009A93ED027AD3ED037A93ED04CA27EE03
:1027A000697A67EEE97AB7EECCCAF1EE476ACDED09
:1027B0002E7ACDED307AF1EE677AB0EE4C0B0E90BA
:1027C0008DED2D7ACDED2F6ACDED316ACDED327ADA
:1027D0008DED337ACDED347A17F08AF9B0EE40BB47
:1027E000B0EE4C0B17F0D0F94FF0040E2DA80346B5
:1027F0004EF001E032E000BF182D4454FB21F93FB8
:10280000182D4454FB210940182D4454FB21194034
:10281000D221337F7CD90240182D4454FB21E93F5B
:10282000182D4454FB21E9BFD221337F7CD902C04B
:1028300000000000644800340000803DF846003489
:102840003000003400004844DB0FC9BFDB0F49C033
:10285000666626405048003400ED00E093ED017AB2
:1028600093ED005AB7EEC77AB7EEC55A27EE404B44
:102870002BEE077BABEE054BA5EE007BB7EEC44B12
:10288000B7EEC77B83ED004A83ED017A08330FF082
:102890001BC84FF0040E4EF001E0D94BD3ED006A97
:1028A00093ED017A2DABD3ED007A77EEA67AC3EDE6
:1028B000007AD3ED017A77EE877A083343ED017A17
:1028C0000FF00FC8002140F21F3E8C4640F2DF1887
:1028D0004FF0040956ABD0ED007AFDEEE77A17EE23
:1028E000906AC3ED007AD0ED017AFDEEE77A002E12
:1028F00017EE902AC3ED017A80F2E782002AC3F82E
:1029000000C007DAC3F804C01F68B7F5487FA8BF46
:10291000C3F800E05F68B7F5F07F1F68A8BFC3F891
:102920000480BE4240F0D5825E68B61A18BF012608
:10293000B9F1010941EA060100F1080003F10803B9
:10294000C9D1DDE956675A9BA3EB06085B9BA3EB55
:102950000709002900F0BF8200210A9A284614F0D6
:10296000C5FF07EE907A9DED2E7ADDED326AF8EE26
:10297000E77A76EEC76A77EEC77A9FEDA27A67EEBE
:10298000877AC7EEA65AFDEEE57A17EE902A07EE93
:10299000906A9DED2D5AF8EEE77A9DED316A77EE5B
:1029A000C57A36EE456A67EE877AC7EE865AFDEE3F
:1029B000E57A17EE901A07EE908AF8EEE75AC5EE20
:1029C000867A67EE877A4FF42873FDEEE77A01EB9B
:1029D000410103FB021117EE903A07EE909AB8EE10
:1029E000E76AC6EE267A67EE877AFDEEE77A17EE9B
:1029F00090CA29444FF4166206EB460602FB0760B4
:102A00000E9ECDE9023C06444FF428733046CDE9D2
:102A100000890CF01DFB0A9B002B1CDD05F01F003C
:102A20001844BFF34F8FEB432E18334420385B0913
:102A3000203003F1010ED8BF4FF0010E2A464EF0B0
:102A400001E07149C1F8702220320FF005C8BFF3D0
:102A50004F8FBFF36F8F6D480BF0C8FCDDE90701A6
:102A60006B4A01F04BF80C9B0746002B1EDD079BC1
:102A700003F01F020C9B1A44BFF34F8F0799624863
:102A8000CB438E183344203A5B09203203F1010E08
:102A9000D8BF4FF0010E4EF001E0C0F85C122031BB
:102AA0000FF005C8BFF34F8FBFF36F8F0D9B002B47
:102AB0001EDD089B03F01F020D9B1A44BFF34F8FCE
:102AC00008995148CB438E183344203A5B09203291
:102AD00003F1010ED8BF4FF0010E4EF001E0C0F837
:102AE0005C1220310FF005C8BFF34F8FBFF36F8F1B
:102AF0003E1E504618BF012600F036FF00F01F0EA4
:102B00000EF58C1E0EF5A05EBFF34F8F0EF1FF3E4B
:102B10004FEA5E1E0EF1010E4EF001E03A4BC3F893
:102B20005C0220300FF005C8BFF34F8FBFF36F8FEB
:102B3000002F00F04E810027314C56ABDA19344B90
:102B40002046D9190837FFF7F1F9A82FF5D1314CF4
:102B500026AF0FCC0FC794E807000C3487E80700B6
:102B60000FCC2DAF0FC70FCC0FC794E80F009DED12
:102B7000577A9DED690ADDED567A30EE470ADDEDB4
:102B8000680AB1EE400A70EEE70A87E80F0017F016
:102B900047F89FED137BB7EEC00A37EE407BB7EEE8
:102BA000C77B9FED114BB7EEC77A9FED115B37EEF8
:102BB000044B84EE056BB7EEC66BBBFE466AB7EE00
:102BC000C66AA6EE457BB7EEC77B9FED0B6BB7EEF3
:102BD000C77AB4EEC67BF1EE10FA80F280811BE07A
:102BE000182D4454FB21F93F182D4454FB21094072
:102BF000182D4454FB211940D221337F7CD9024047
:102C0000504800340000604300ED00E00000003454
:102C1000A8470034D8B611709FEDBD6BB4EEC67BEB
:102C2000F1EE10FA80F25E819FEDBB6BB4EEC67BD5
:102C3000F1EE10FA80F259819FEDB96BB4EEC67BCC
:102C4000DFEDB97AF1EE10FA9FEDB87A67FE877A78
:102C5000CDED1F7ADFEDB66ADFEDB67AB0EE666ACB
:102C6000B0EE677A0C212DAB53F8042B56A800EB7D
:102C7000C20292ED005AD2ED015AB4EEC57AF1EEDD
:102C800010FAF4EEE57A37FE057AF1EE10FAB4EEBA
:102C9000C56A77FEA57AF1EE10FAF4EEE65A58BF4F
:102CA000B0EE456AF1EE10FA76FEA56A0139DBD185
:102CB00037EE065A77EEA65A25EE295A65EEA95A3E
:102CC00037EE467A77EEE67A4FF0070E8DED1B5A17
:102CD000CDED1C5A8DED1D7ACDED1E7A8DED215A6C
:102CE000CDED225A8DED237ACDED247A4EF001E020
:102CF000259A26AB53F8041B56A800EBC1010868BF
:102D000049681060516008320FF00DC0B0EE001A33
:102D10001BA8F0EE410A9FED880AFFF751FB002344
:102D200016AF1BAC1F930FCC0FC700231C463B6094
:102D3000DFF81082814F824B08EB040219193846E4
:102D40000834FFF7F3F8A82CF5D101F0B1FC7D4A67
:102D5000034610A913A800F053FC9DF84E309DF8CF
:102D60004DB0149C0993A3B301F0A2FC074658464A
:102D700000F028FD8046584600F032FD8146584656
:102D800000F03CFD824600F04AFD3B46CDE90340A1
:102D90004FF48071CDE9019A6B4ACDF8008056A8B6
:102DA00014F046FC002808DDFF28A8BFFF200A23F6
:102DB00082B256A9654809F0F6F801F079FC074699
:102DC00000224FF48061624804F0B8FA614B8C37FE
:102DD0001F6001F06DFC0F9BC01A07EE900AF8EE21
:102DE000677AE8EEAA7A5B4F67EE8A8A01F060FCA8
:102DF0003B6853B1C01A002807DB01224FF4806101
:102E0000534804F09BFA00233B604FF0FF315248D7
:102E100010F044F8002E77D1FDEEC97A17EE902A13
:102E20004E4B9A6532461EB1FDEEE87A17EE902AB7
:102E3000DDF850C10999DA65DCF80020484FDA6600
:102E40008DF84DB08DF84E10149413AA07CA87E878
:102E50000700614607F1100083ED158A9E66DE6764
:102E6000FFF73BF8DFF8D4E007F1280CBEE80F00CD
:102E7000ACE80F00DEF80030A822314907F13C0031
:102E8000CCF8003014F0C9FFA7F1500010F038F86A
:102E9000A7F17000012110F04FF80B9FFFF742BB24
:102EA000DFED306A03E4DFED306A00E4234F0DF11B
:102EB000580CBCE80F000FC7DCF80030549820A96C
:102EC0003B60FFF70AF8002046E4002ABFF61CAD7D
:102ED00018E501262CE5E02329469C468AE5DFED2E
:102EE000217AB5E6DFED207AB2E6DFED207AAFE6B3
:102EF00010A800F080FB34463046CDE913669DF8FB
:102F000041B01596099668E7002289E7AFF3008083
:102F1000182D4454FB21E93F182D4454FB21E9BFEF
:102F2000D221337F7CD902C0DB0FC9BFDB0F49C080
:102F300000401C4600401CC6CDCCCCBD50480034DF
:102F4000A847003400470034BBB91170A093003487
:102F50000018025610460034D4480034B4480034F7
:102F600024490034DB0F4940DB0FC93F000000005B
:102F7000F0B58BB000F056FC2F4B08AA93E8030085
:102F800082E8030002212D4800F07EF82C4800F072
:102F9000D9F900222B4B2C492C4800F009F90022CA
:102FA000202311462A480FF0DBFF0022294C11464E
:102FB000202320460FF0D4FF34230122002104F106
:102FC00020000FF0F5FE00F0D9FC002100F054F9CC
:102FD0000A251D230126C0274FF48054CDE903356F
:102FE00002931D4BCDE9056700931C4A00231C4941
:102FF00001941C4810F04EF81E23CDE902331A4B01
:10300000CDE905670093194A0023194904950194F5
:10301000184810F03FF81C23CDE90233164BCDE9D8
:1030200005670093154A0023154904950194154836
:1030300010F030F80BB0F0BD24B7117064480034C4
:1030400018460034D11F1070012010701D20107020
:10305000487C0034B4480034886B00346924107014
:1030600032BA1170887B0034C85A0034292010709D
:103070003CBA1170C86A0034084A0034151F107039
:1030800046BA1170085A003470B520230D46164612
:103090000A46002104460FF063FF20230022E018B7
:1030A00011460FF05DFF84F840502DB13368012DBB
:1030B00063641CBF7368A3640023A4F84C3070BD24
:1030C000003918BF012110B5494204460FF0B6FF80
:1030D0000D280ED094F84C3004EB8302506C94F819
:1030E00040200133B3FBF2F102FB113384F84C3082
:1030F00010BD0020FCE70FF0C1BF10B504464FF033
:10310000FF3120300FF09AFF94F84D3004EB83022A
:10311000506C94F840200133B3FBF2F102FB113301
:1031200084F84D3010BD20300FF0A8BF07EE901A84
:10313000F8EE676A07EE902A9FED1B6AB8EE677A91
:10314000DFED1A5A86EE865AC7EE257AB4EE675A34
:10315000F1EE10FA48BFF0EE457A27EE866A67EE88
:10316000A57AF4EEC66AF1EE10FAB4EEE77ACCBFB7
:10317000FCEEC66AFCEEE66AF1EE10FA16EE903A44
:10318000CCBFBCEEE77ABCEEC77A0131C91A17EEA4
:10319000103A0132D21A49085208C0ED006A80ED97
:1031A000017A8160C2607047000048440000F0432B
:1031B0002DE9F04F4FF0020993B007460E46154631
:1031C0000021142201A81C4614F090FB01A8CDF8A0
:1031D00018900CF069FADDE901AB242200210DEB17
:1031E000020014F083FB4FF4F0734FF448724FF079
:1031F0000308CDE9072351465A460EA8CDF828808A
:10320000CDF83480FFF792FF6A4607A901200CF041
:1032100005F9DDE901AB242200210DEB020014F0D9
:1032200065FBC0217323CDE9071301235A4651469C
:103230000EA8CDF828800B93CDF83480FFF776FFE9
:103240006A46484607A90CF0E9F80FB1064B1F6023
:103250000EB1064B1E600DB1054B1D600CB1054B48
:103260001C6013B0BDE8F08F747C0034707C0034B7
:103270006C7C0034687C00340A46014601200CF066
:103280008FB910B504460CF0C5F82346BDE81040D0
:103290000022012103F00EBC0A46014602200CF078
:1032A0007FB910B504460CF0B5F82346BDE81040D0
:1032B0000022022103F0FEBB0CF052BA00B5E5B0CB
:1032C0004FF4C8720021684614F010FB1822002346
:1032D000CDE900234FF400134FF0805132930323C4
:1032E000CDE9221328236846259305F043F90038D9
:1032F00018BF012065B05DF804FB0000012808B587
:1033000005D1054B1B6803B19847002008BD022872
:10331000FBD1024BF6E700BF747C00346C7C0034B8
:10332000012808B505D1054B1B6803B1984700205B
:1033300008BD0228FBD1024BF6E700BF707C0034C9
:10334000687C0034054A0021D2F8FC3043F08073D9
:10335000C2F8FC30E02214F0C9BA00BF00ED00E072
:1033600070B5044600F1380500F120060FCE0FC5F8
:1033700096E8030086B085E80300684610F04EF832
:1033800002A810F055F804A810F05CF8DDE9001070
:10339000029B049D039ACB1840EB02025B19059D2A
:1033A000C4E90A1042EB0502C4E9083201F080F9D1
:1033B000A36C226E20639B1AB3F57A7F04F1380167
:1033C00007D3902204F1500006B0BDE8704014F01D
:1033D00073BA06B070BD0000F8B504462DED028B3F
:1033E00016461D460F46F9B1D4E91023D0E90A016B
:1033F000801A61EB0301FEF757FBD4E90E239FED22
:103400002E7B41EC180BD4E90801801A61EB030113
:1034100028EE078BFEF748FB41EC160B88EE067B87
:10342000B7EEC77B87ED007AFEB1D4E91C32D4E950
:103430001601C01A61EB0201FEF736FBD4E91A321D
:103440009FED1D7B41EC180BD4E91401C01A61EB10
:10345000020128EE078BFEF727FB41EC160B88EEE6
:10346000067BB7EEC77B86ED007AFDB1D4E9343236
:10347000D4E91601C01A61EB0201FEF715FBD4E98D
:1034800032329FED0D7B41EC180BD4E91401C01AC8
:1034900061EB020128EE078BFEF706FB41EC160BF1
:1034A00088EE067BB7EEC77B85ED007ABDEC028B1C
:1034B000F8BD00BFAFF300800000000000005940DD
:1034C00070EEE10A30EE411A20EEA00AA1EE010AE8
:1034D00084B004B016F0A6BB38B500EBC1010446B9
:1034E000D0ED010A2DED028B90ED000A91ED001A4E
:1034F000D1ED011A1546FFF7E3FF04EBC502B0EE6C
:10350000408A92ED001AD2ED011A94ED000AD4ED32
:10351000010AFFF7D5FFDFED077A20EE270AB4EEA8
:10352000C80ABDEC028BF1EE10FA4CBF012000205E
:1035300038BD00BF713D8A3F38B590ED081A2DEDBA
:10354000028BD0ED091AD0ED010A90ED000A044675
:10355000FFF7B6FF94ED041AD4ED051AD4ED010A75
:10356000B0EE408A94ED000AFFF7AAFFDFED1E7A65
:1035700060EE277AB4EEE78AF1EE10FA4FF0060219
:103580004FF008012046CCBF01250025FFF7A4FF1E
:1035900045F0020300284FF00A024FF00C012046CC
:1035A00018BF1D46FFF798FF45F00403002818BF19
:1035B0001D460E2210212046FFF78EFF45F008031E
:1035C0000028DBB218BF1D46122214212046FFF747
:1035D00083FFBDEC028B45F010030028DBB214BF63
:1035E0001846284638BD00BFCDCC8C3F0023036071
:1035F00043608360704700230370837043607047AB
:10360000F0B52DED028B92ED121AD2ED131AD2ED18
:10361000010A92ED000A85B015461F4606460C4683
:10362000FFF74EFFF3EE047AB4EE670AB0EE408A7D
:10363000F1EE10FA95ED101AD5ED111AD5ED090A33
:1036400095ED080A48BFB0EE678AFFF739FF2846B4
:10365000F0EE408AFFF770FFDFED575A10F00102DD
:1036600095ED097AD5ED056AD5ED087A95ED046AF0
:1036700028EE258A00F01E0300F08B808BBB77EECE
:10368000C67A37EE667AF0EEE77A9FED4C6AF0EE96
:10369000C76A67EE867AF4EEE76AF1EE10FA24DD87
:1036A000B5EEC07AF1EE10FA4CBF082204220021D8
:1036B0006378CDF80610CDF80A10ADF80E108DF82D
:1036C00004208DF805302ABB2270A270626004AB22
:1036D00013E9070086E80700304605B0BDEC028B11
:1036E000F0BD102B61D10722E1E7F4EEC88AF1EEBC
:1036F00010FA57D500F01C001C2805D0002A4DD028
:103700001E2B4DD10122D2E70222D0E70A22CEE7BA
:103710000022CCE72378934214BF67606168606839
:103720001ABF2270A170791A60BB676064234FF4DE
:1037300096614343B3FBF1F340F2DB55A1688DF88A
:103740000C307B1AAB4294BF00230123002908BF31
:103750000123B0F5966F83F0010102908DF80D10F2
:10376000B5D1A1789142B2D0002BB0D001238DF811
:10377000063000236270A760A2708DF805208DF8D6
:103780000D30A4E7B1F5966F28BF4FF49661084657
:10379000CCE7F4EEC88AF1EE10FAABD41E2BB5D00C
:1037A0000E2BB5D8064AD25C81E7F4EEC88AF1EE5A
:1037B00010FAA5D59EE700BF3D0AD73E3333933FAD
:1037C00014BD11700138C0B209289ABF024B53F8DA
:1037D00020000248704700BFECBC1170CDBA1170D8
:1037E0000138C0B209289ABF024B53F820000248A2
:1037F000704700BFC4BC1170D0BA11700138C0B29C
:1038000009289ABF024B53F820000248704700BFB6
:103810009CBC1170C8BA11704FF49660704740F2AA
:10382000DC5070472DE9F041424D86B0182200214E
:10383000684614F05BF8002128463F4A14F056F819
:10384000BFF34F8FDFF81CE100234EF001E03B4A4D
:10385000E918C2F8701220330FF007C0BFF34F8F82
:10386000BFF36F8F364C00212046364A14F03EF8E5
:10387000BFF34F8F4BF6803E00234EF001E02F4AFE
:10388000E118C2F8701220330FF007C0BFF34F8F5A
:10389000BFF36F8F002401264FF448784FF4F07780
:1038A00001F054FA642001F091FA274B274A1B7863
:1038B000694602FB03552046CDE903760094029445
:1038C000CDF80480059501F049FA0098019A204B43
:1038D000121A02999A60039A1860521A5960DA60B3
:1038E000042304931B4B694630460593CDE90184BC
:1038F0000094039701F032FA0098019A164B121ABD
:1039000002999A60039A1860521A14485960DA6052
:1039100010F048FA304610F075FA204610F0B4FD69
:103920000F4810F09DFA4FF0FF3010F091FA06B0FA
:10393000BDE8F08100D01A910050460000ED00E093
:1039400000600391007017006000003400941100C3
:10395000887C003400180F91787C003464BE1170AC
:10396000F040003480320200024A034B02FB003078
:10397000704700BF0094110000D01A91034B044817
:103980001A78044B00FB0230704700BF997C00346A
:103990000094110000D01A9110B50F4C0F4A2378F3
:1039A000013303F0030323701378013303F003039F
:1039B000137001F015FA2178094B0A4C002204FB20
:1039C000013104F0AEFB01F00BFABDE8104000221B
:1039D000022104F08ABB00BF60000034997C0034EF
:1039E00000D01A910094110010B572B601F0F8F9E8
:1039F000054B064C1978064B012204FB013104F0FB
:103A000090FB62B610BD00BF987C003400B80B007C
:103A10000060039110B5114C11492278114B01FB44
:103A20000233BFF34F8F45F6C05E4EF001E00E4A01
:103A3000C2F8683220330FF005C8BFF34F8FBFF3D1
:103A40006F8F72B601F0CCF90122022104F04DFB18
:103A500062B62378C3F10103237010BD987C003453
:103A600000B80B000060039100ED00E0C02300B53A
:103A7000C0E90033072383604FF07C531421C360F7
:103A80000A4B41F001E003614FF4FC63C0E90531EA
:103A9000074B084AC361084B5A61383218330FF09C
:103AA00005C85DF804EB0DF008BF00BFCDCCCC3EDF
:103AB000640000349C7C0034FC80003413B50C4658
:103AC000022C11461A4606D04FF48771074B084A5C
:103AD000084812F0F9FC03680093436868460193B4
:103AE000054B0B600DF0ECFE02B010BD23BD117054
:103AF0009CBD117031BD1170FC80003490ED007AD6
:103B0000F5EE007AB4EEE77AF1EE10FA00B518D4CB
:103B10004FF0150EDFED0C7A4EF001E0D1ED006AAA
:103B200086EEA77A82ED007AD1ED016A86EEA77A59
:103B30000C3182ED017A08320FF011C001205DF8DE
:103B400004FB0020FBE700BF00006043044B82B091
:103B5000C3F85C0AD3F85C320193019B02B0704752
:103B6000008002562DE9F04F99B001F0A3F914221C
:103B7000002113A813F0BAFE0820FFF7E7FF10207A
:103B8000FFF7E4FF0220FFF7E1FF8020FFF7DEFFF1
:103B90004FF40040FFF7DAFF4FF48040FFF7D6FF05
:103BA0004020FFF7D3FF2020FFF7D0FF4FF4005055
:103BB000FFF7CCFF0120012503244FF480664FF06E
:103BC0000208FFF7C3FF02464FF48061454803F047
:103BD000B5FB00225021444803F0B0FB002208212D
:103BE000424803F0ABFB01224FF480613E4803F0F2
:103BF000A5FB3C4813A9CDE91365CDE9158403F075
:103C0000FDF950230827384813A9CDE91335CDE92C
:103C1000155403F0F3F9354813A9CDE91375CDE92F
:103C2000155403F0EBF913A92F48CDE91365CDE93D
:103C3000158403F0E3F94FF4E133DFF8CC902C4A1C
:103C40004846C9E9002300230C22C9E90233C9E927
:103C50000523C9E90733C9E90933C9F8103008F069
:103C600054FA014608B172B6FEE7484608F0BBFABE
:103C7000014608B172B6FEE7484608F0D4FA08B12A
:103C800072B6FEE7484608F093FA08B172B6FEE74E
:103C9000DFF878B0174B5846CBF8003004F0D6FA6E
:103CA00008B172B6FEE7DFF868A0134B5046CAF8B9
:103CB000003004F0CBFA08B172B6FEE7DFF854909A
:103CC0000E4B4846C9F8003004F0C0FA08B172B68D
:103CD000FEE70B4A0B4B1046136004F0B7FAD8B15D
:103CE00072B6FEE700100256001802560000025697
:103CF0000010005200310252803102520032025252
:103D00003494003480320252A0930034589400342A
:103D10004C940034409400340190584604F0B3FAB7
:103D200050464FF4007A04F0AEFA4846DFF83C9370
:103D300004F0A9FABD4804F0A6FAC9F858AAD9F8BF
:103D4000582213A903920920039ACDE9138407F09E
:103D500013FF384613A907F00FFF13A90A2007F035
:103D60000BFF13A90B2007F007FF284613A907F044
:103D700003FF2146AE4807F015FF2146AD4807F086
:103D800011FF2146AC4807F00DFF2146AB4807F074
:103D900009FF2146AA4807F005FF2146A94807F078
:103DA00001FF2846202104F0E9F9394640F20132AA
:103DB000A54803F0C8FA40F201321021A34803F0ED
:103DC000C2FA40F201324FF48041A04803F0BBFA3E
:103DD00040F2013220219E4803F0B5FA40F2013250
:103DE00040219B4803F0AFFA314640F20132984837
:103DF00003F0A9FA40F201321021964803F0A3FA29
:103E000040F201324021934803F09DFA314640F2DE
:103E10000132904803F097FA294640F201328E4869
:103E200003F091FA414640F201328B4803F08BFADD
:103E300040F201320421884803F085FA394640F205
:103E40000132854803F07FFA40F2013210218248A6
:103E500003F079FA40F2013220217F4803F073FA2F
:103E600040F2013240217C4803F06DFA40F2013209
:103E70004FF48071784803F066FA514640F20132FF
:103E8000754803F060FA314640F20132724803F09F
:103E90005AFA40F201324FF400616F4803F053FACE
:103EA000294640F201326D4803F04DFA40F20132EA
:103EB00004216A4803F047FA40F2013210216748B2
:103EC00003F041FA40F201322021644803F03BFA4A
:103ED000294640F20132624803F035FA414640F289
:103EE00001325F4803F02FFA40F2013204215C48AE
:103EF00003F029FA394640F20132594803F023FA17
:103F000040F201321021564803F01DFA40F201320E
:103F10002021534803F017FA40F201324021504863
:103F200003F011FA40F2013280214D4803F00BFA00
:103F300021464C4807F036FE019B184600F054FF1E
:103F40004FF00043C9F8603AD9F860220492049A0D
:103F5000454AC9F8203AC2F82032C9F8586AD9F857
:103F600058320593059BC9F8186AC2F8186208F020
:103F7000F9F908F001FA4FF0FF33C9F8843AD9F89B
:103F800084221392139AC9F88C3AD9F88C2212928F
:103F9000129AC9F8903AD9F890221192119AC9F858
:103FA000943AD9F894221092109AC9F8983AD9F80C
:103FB00098220F920F9AC9F89C3AD9F89C220E9237
:103FC0000E9AC9F8A03AD9F8A0220D920D9AC9F814
:103FD000A43AD9F8A4220C920C9AC9F8A83AD9F8B4
:103FE000A8220B920B9AC9F8AC3AD9F8AC220A92E3
:103FF0000A9AC9F8B43AD9F8B4220992099AC9F8C8
:10400000B83AD9F8B8220892089AC9F8BC3AD9F84F
:10401000BC220792079AC9F8883AD9F888320693E1
:10402000069B19B0BDE8F04FFEF7A2BF34940034F0
:104030001D000020050000300600003007000030A1
:10404000080000300A00003000000256000C025642
:10405000001002560018025600340256003802566C
:10406000003C02561C0000200090025600800256C0
:1040700008B52D4B1A6842F400521A601A6842F4CF
:1040800080521A60A3F573435A6912F4003211D1B9
:10409000BFF34F8FBFF36F8FC3F85022BFF34F8F23
:1040A000BFF36F8F5A6942F400325A61BFF34F8FEA
:1040B000BFF36F8F1D4A536913F4803328D1C2F8C0
:1040C0008430BFF34F8F43F6E074D2F88030C3F3EF
:1040D000C900C3F34E335B0100F1010E01464EF0FF
:1040E00001E003EA040646EA8175C2F8605201392C
:1040F0000FF007C8203B13F1200FEDD1BFF34F8F16
:10410000536943F480335361BFF34F8FBFF36F8F15
:1041100000F0D0FE00F0E8FF0DF0CAFD0DF0A2FDAA
:1041200000F0C8FEFEE700BF00E001E000ED00E0A7
:1041300008B54FF440330748074A0221C0E900237D
:104140000023C0E9021302F026FE08B172B6FEE7B2
:1041500008BD00BF609500340010025810B5114A28
:10416000114C124B2046C4E9002300230122C4E96C
:104170000433C4E90232C4E90633236203F035FA9A
:10418000014608B172B6FEE7204603F055FC014631
:1041900008B172B6FEE7204603F074FC08B172B6AF
:1041A000FEE710BD005800500C950034FFEDC03004
:1041B0002DE9F0439BB034220021684613F096FBB2
:1041C000342200210DEB020013F090FB0023314C50
:1041D000314A2F21C4E9002302228720C4E90512B5
:1041E000222240F2A735C4E9070240F2022240F23F
:1041F000CF36C4E9095240F20F222046C4E90B62CF
:10420000C4E902332361A38684F8363003F0DAFE72
:10421000024608B172B6FEE74FF448764FF0FF0948
:104220004FF4F07504234FF4C0680727CDE901600F
:10423000CDE90590CDE909060090ADF830008DF884
:10424000320069462046CDE90353CDE907870B9537
:1042500003F012FF08B172B6FEE70823CDE90D06A0
:10426000CDE90F05CDE91308CDE91570ADF864006F
:104270008DF86600012220460DA9CDE91139CDE95E
:10428000176503F0F9FE08B172B6FEE71BB0BDE892
:10429000F08300BF64940034001000580123C02252
:1042A00000B589B00A21CDE905321F23CDE90331DC
:1042B00002934FF480530193064B074A009307493A
:1042C000002307480EF0E6FE08B172B6FEE709B01B
:1042D0005DF804FBDC820034653B107058BE117041
:1042E000E092003472B6FEE7C0B26DED81CF11B13D
:1042F00040B1012809D09FEC100A9FE80F90FDEC17
:1043000081CF7447024B1960F5E7024BFBE700BF12
:10431000CC950034C895003408B4F3B504460D4676
:10432000164607AB094F53F8042B3021384601934A
:1043300013F020FA33463A46294620460FF016FF7E
:1043400002B0BDE8F04001B0704700BFD095003426
:10435000044B82B0C3F84C0AD3F84C320193019B52
:1043600002B0704700800256044B82B0C3F85C0A6A
:10437000D3F85C320193019B02B070470080025673
:10438000044B82B0C3F8600AD3F860320193019BFA
:1043900002B070470080025608B503F03FFF0121CC
:1043A000084603F00BFF03F041FF0121022003F058
:1043B00005FF03F043FFBDE808400021032003F0A0
:1043C000FDBE00000268034B9A4202D10220FFF7B3
:1043D000D7BF70470010025810B50446EAB0142247
:1043E000002101A813F082FA4FF4C872002106A838
:1043F00013F07CFA2268174B9A4228D100234FF41D
:104400000052CDE90623144B06A8419304F0B2F8FC
:1044100008B1FFF767FF0820FFF7A6FF44F210027C
:1044200012230021CDE901230323CDE90313042343
:104430000A480DEB0301059302F0E0FD4FF4800202
:10444000074BC3F8642AD3F864320093009B6AB028
:1044500010BD00BF005800500C040007000C0256AD
:104460000080025608B50268094B9A420FD14FF4FA
:104470008002084B10210848C3F8642202F0AEFE07
:10448000BDE808404FF48041034802F0A7BE08BDD4
:104490000058005000900256000C0256F0B5044639
:1044A000EBB01422002101A813F020FA4FF4C872D7
:1044B000002106A813F01AFA22683A4B9A426ED1EC
:1044C00000234FF08072CDE906234FF000734C9328
:1044D00018234FF000510DEB0300CDE9261304F033
:1044E00049F808B1FFF7FEFE02242F4B2046C3F81F
:1044F0007C4AD3F87C3200260093009BFFF734FF00
:104500008020FFF731FF2020FFF72EFF0120FFF76B
:104510002BFF4020FFF728FF03250E2749F63243E3
:10452000224801A9CDE90134CDE90365059702F0E0
:1045300065FD10231E4801A9CDE90134CDE90365CD
:10454000059702F05BFD4FF440731A4801A9CDE9CD
:104550000134CDE90365059702F050FD49F6A773D4
:10456000154801A9CDE90134CDE90365059702F0AD
:1045700045FD4BF20623114801A9CDE90134CDE9EF
:104580000365059702F03AFD0123CDE901340A23C2
:104590000A4801A9CDE90365059302F02FFD6BB030
:1045A000F0BD00BF00100058008002560004025603
:1045B000001C025600140256000002560018025653
:1045C00007B54FF480520120FFF7C2FE0220FFF72B
:1045D000BFFE0420FFF7BCFE0820FFF7B9FE054B25
:1045E000C3F8542AD3F854320193019B03B05DF809
:1045F00004FB00BF0080025610B50446EAB0142246
:10460000002101A813F072F94FF4C872002106A826
:1046100013F06CF92268144B9A4223D14FF4807343
:104620000022CDE90623114B06A85A9303F0A2FFFE
:1046300008B1FFF757FE10200D4B6022C3F86C0A3B
:10464000D3F86C3201A90093009BFFF78DFE022383
:10465000CDE901230023CDE9033307230548059362
:1046600002F0CCFC6AB010BD00100052300001070F
:10467000008002560010025608B50268094B9A42A3
:104680000ED14FF48060FFF763FE4FF08040FFF7DC
:1046900077FE054BC3F8200A03F58053C3F82002C8
:1046A00008BD00BF00FC0D58008002560020704776
:1046B0000EF02CBA0EF056B8FEE7FEE7FEE7FEE776
:1046C000FEE7FEE77047704708B50AF0A3FEBDE8B5
:1046D000084001F0A4B808B50AF09CFEBDE8084007
:1046E00001F0D4B90120704708B513F053FB16232D
:1046F00003604FF0FF3008BD08B513F04BFB1623E5
:104700000360FEE770B50D4614460E46731B9C42CF
:1047100001DC204670BDAFF3008006F8010BF5E721
:1047200070B50D4614460E46731B9C4201DC2046B4
:1047300070BD16F8010B00F061FBF5E74FF0FF309C
:1047400070474FF4005300204B60704701207047C2
:10475000002070470B4A0346116810B509B90A4991
:104760001160106809490A4C0344091B8B4206D9A1
:1047700013F010FB0C2303604FF0FF3010BD1360EB
:10478000FCE700BF00960034882301340000203489
:10479000000800000F4880F30A880F48854600F0A3
:1047A0003DFB0E480E490F4A002302E0D458C45086
:1047B0000433C4188C42F9D30B4A0C4C002301E09B
:1047C00013600432A242FBD313F0EAFAFFF750FC65
:1047D000FEE7000000F81F34000020340000003421
:1047E000C042003404A91F70C04200348423013445
:1047F000FEE7000008B5044B1A781AB901221A70B6
:10480000FFF7ACFC002008BD0496003408B5064A4A
:10481000137833B1013BDBB2137013B9034802F0D4
:1048200039FF002008BD00BF049600340C95003409
:104830001FB54FF47A740092CDE901340A46022381
:104840000146044802F040FF003818BF01204042F2
:1048500004B010BD0C9500341FB54FF47A7400926B
:10486000CDE901340A4602230146044803F006F864
:10487000003818BF0120404204B010BD0C95003430
:10488000FFF716BF70B534260D4D0E48AC682D6885
:1048900006FB0400846C05FB0211C06D24B950F8BE
:1048A000212000201A6070BD062C05BF01EB4101DC
:1048B0000A5830F8112022F07F4218BF92B2F0E778
:1048C0000896003464940034F0B534271D4C1E4E15
:1048D000A06807FB0060D0F848C0C56D206800FBE9
:1048E0000210BCF1000F03D145F820300020F0BDCC
:1048F000BCF1060F22D15FFA83FC00EB4000033DC0
:1049000000F805C0A568206807FB056500FB0210DC
:10491000ED6D00EB4000C3F3072C023D00F805C02D
:104920002068C3F3074300FB0212A16802EB4202B6
:1049300007FB0166F16D01395354D7E79BB225F8A7
:104940001030D3E70896003464940034024B002002
:104950001B680B60704700BF08960034024B0020B4
:104960005B680B60704700BF0896003434200F4B23
:104970000F4A996000FB01210A6E1A604A6E5A6064
:104980008A6C042A0BD0082A0CD0062A0BBF0322FB
:104990000422012100210020C3E9031270470222F2
:1049A0001146F8E702220421F5E700BF089600341B
:1049B00064940034024B0020DB680B60704700BF3A
:1049C000089600342DE9F3419046304A0F46D168ED
:1049D00006460229089C35D140F2031C40F20F2004
:1049E000C4F34515C4F3C4220CFB05F5424304F09F
:1049F0001F04444321351732AD0992092D021734A3
:104A000045EA024545EA941545F07F444FF44032AB
:104A10001F4D2048C5E90213C5E90002284602F0EF
:104A2000BAF978BB3B46324621462846CDF800808D
:104A300002F0EEF930BB3221284602B0BDE8F04169
:104A400002F000BA042917D1C4F3033202EB0210BA
:104A5000C4F3032202EB0212120442EA006204F0E1
:104A60000F0000EB00100243C4F3031004F0F00445
:104A7000044442EA0424C9E7012914BF002144F098
:104A80007F44C3E702B0BDE8F08100BF0896003460
:104A9000609500340010025873B50C4D0C462E6919
:104AA000A86819462B68342502FB0344084A5B1AA0
:104AB00005FB0022D06D079A06FB04000092069ABF
:104AC000FFF780FF002002B070BD00BF08960034E1
:104AD0006494003473B50C4D14462E69A8681A46C8
:104AE0002B68342504FB03140849013B05FB001126
:104AF000C86D069906FB040000910121FFF762FFD3
:104B0000002002B070BD00BF0896003464940034E9
:104B100037B50C4619460B4B18681D6900FB02445B
:104B200034209A68084B00FB0233D86D069B05FBC6
:104B30000400009301220023FFF744FF002003B08C
:104B400030BD00BF08960034649400342DE9F34171
:104B500090461C4A0646D5680F46022D07D02A46C5
:104B6000681E41424141042D14BF0D4615464FF4C5
:104B70008032154C15492046C4E900120022FF215D
:104B8000C4E91123A560E260E264216502F003F943
:104B9000A0B90121204602F0D3F978B901233A46A1
:104BA000009331464346204602F032F930B93221B3
:104BB000204602B0BDE8F04102F044B902B0BDE8C1
:104BC000F08100BF08960034609500340010025850
:104BD0002DE9F74F294E1C46F3688846022B1546EF
:104BE00007D01A46581E41424141042B14BF0B46C0
:104BF00013464FF0340A0D9FDFF88490DFF884B03D
:104C00002F44BD4203D1002003B0BDE8F08FB1684E
:104C100030680AFB019105FB008C3269C96D02FB0B
:104C20000C114243002A1DDD04F01F001044BFF3A5
:104C30004F8FE24304EB000E7244203852092030BB
:104C400002F1010ED8BF4FF0010EA4464EF001E074
:104C5000CBF868C20CF1200C0FF007C0BFF34F8FE8
:104C6000BFF36F8F20460C9A0193FFF76FFF0C9BE9
:104C70003269013502FB0344019BC2E70896003408
:104C80006494003400ED00E04FF0340C2DE9F84F4F
:104C90001F4F9D8B3C68BE6804FB02111D4A3C6996
:104CA0000CFB0622D66DA5F12002072A04FB016643
:104CB000D3F80A00D3F812A0D3F8169017D9A5F1AB
:104CC0001002082A34BF4FF0020B4FF0010B4FF0D7
:104CD0000008ED080AFB05F509F1FF3205FB0200AB
:104CE0006D421C18C84505D10020BDE8F88F4FF073
:104CF000000BECE731465B4620465246FFF726FFA5
:104D00003B6939682C4401FB036608F10108E9E7B7
:104D10000896003464940034022810B5044605D087
:104D200001280ED0042814BF04240224064BC3E932
:104D30000304C3E90012FFF7FBF9BDE81040FFF7D9
:104D400037BA0324F2E700BF089600344FF4F0723C
:104D50004FF448710220FFF7DFBF000070B5FF2657
:104D60000C468EB024220021054605A812F0BEFD97
:104D70004FF4C06E06960726A268E3682068049385
:104D80009B1A61680C932369CDE908E66669029174
:104D9000022BA1EB0001019003920A960B910AD11C
:104DA000042305936B1E5A425A4101A9064803F099
:104DB00063F90EB070BD042B01D10823F1E7002B7D
:104DC000F0D00623EDE700BF64940034024600B142
:104DD00001220821014802F0B1BA00BF00000256CA
:104DE0000048704764940034034B02221868002383
:104DF0008068194612F068BB0441003407B54FF6CD
:104E0000FF730190012201A9034807F0CCF8019833
:104E100003B05DF804FB00BFA09300341E491F4A95
:104E2000D1F88C3010B543F44063C1F88C30536B2B
:104E300023F0E05343F0805353630022184BC3F830
:104E40008022C3F88422C3F88822C3F88C22C3F8D6
:104E50009022C3F89422C3F898220122114B8B6050
:104E6000114BC3F8782AD3F878028C680F4803F501
:104E7000805304610069C3F87822D1F888300C4A65
:104E800043F47003C1F88830D2F8883043F47003DB
:104E9000C2F8883010BD00BF00ED00E000EF00E078
:104EA00000E100E00004107000800256008000560F
:104EB00000ED02E07B4BF0B51A6A02F44012B2F545
:104EC000001F00F0D18008D8002A39D0B2F5801F29
:104ED0003CD00022744B1A60F0BDB2F5401FF8D1EF
:104EE000D3F8C42002F04052B2F1805F36D0B2F164
:104EF000005F44D0002A52D1D3F8802012F0006421
:104F000002F0E04140F0B980D3F88400D3F8883053
:104F1000C2F30B2520F07F400C46B4F1005FC3F3D1
:104F2000C266C2F30551C3F3026300F0948000F23D
:104F30009D80002C47D0B4F1805F7CD0002249E0F6
:104F40009B6C5A4AC3F3C113DA40C3E75B6C584AFF
:104F500013F4007F574B08BF1A46BBE7D3F89020E5
:104F600012F0006402F0E04140F08780D3F8940032
:104F7000C2F30B25D3F8983020F07F40CCE7D3F86C
:104F8000A02012F0006402F0E04176D1D3F8A40032
:104F9000C2F30B25D3F8A83020F07F40BCE7D3F84C
:104FA000B02012F0006402F0E04166D1D3F8B40002
:104FB000C2F30B25D3F8B83020F07F40ACE70B46A6
:104FC0000E4608460D46374A976C384AC7F3C11754
:104FD000FA403CBB07EE100AB8EEC76A07EE105A5B
:104FE00007EE902ADFED346AB8EEC77AF8EEE77A7A
:104FF000A6EE267A67EE877A07EE101AB8EEC77A21
:10500000C7EE876A07EE906AB8EEE77A07EE903A45
:10501000F8EEE77A27EE277AC6EE877AFCEEE77A93
:1050200017EE902A1F4BD3F8C430C3F30743013364
:10503000B2FBF3F24EE700241A4A1E4F526C12F4F0
:10504000007F1B4A08BF3A46C3E700231E461846A6
:105050001D461946F0E70024184ABAE700231E4609
:1050600018461D461946F7E7144A33E7B4F1405F86
:105070007FF464AF0024124AABE7B1F1005FEDD0DA
:1050800006D800299BD0B1F1805FDED00022C9E7AD
:10509000B1F1405FFAD100231E4618461D4619465D
:1050A000E9E700BF00800256643F00340090D0035F
:1050B0000024F40000093D0000008033006CDC0295
:1050C0000080BB006DED81CF00B5FFF7F3FE054B0F
:1050D0005DF804EB18689FEC100A9FE80E90FDEC59
:1050E00081CF7447643F003410B5032000F09AF874
:1050F000FFF7E0FE0F20FFF7D9FA044618B9FFF7D3
:105100004BF9204610BD0124FBE738B5046805467D
:10511000606810F009003FD1A860012028711220BA
:10512000013BE060C4F804211A44C4F80821D4F813
:10513000003123F006031943049BC4F80011012B2E
:10514000A3680AD143F01003A360D4F8003143F000
:105150000103C4F8003100201DE023F01003A36018
:10516000D4F8003143F00103C4F80031FFF7A0FA8E
:1051700004462B685B68DB06EDD4FFF799FA001B49
:10518000C828F6D92B685B68DA06F2D41023AB6026
:10519000062301202B7138BD0220FCE738B50446F8
:1051A000E8B103685B68D90707D400202268A060D3
:1051B000136843F00103136038BDFFF779FA054621
:1051C00023685B68DB07F0D5FFF772FA401B012804
:1051D000F6D923685B68DA07F2D41023A3600120B4
:1051E000EAE710B5044660B103790BB9FFF744FA5A
:1051F0000023A360012323712046BDE81040FFF780
:10520000CDBF012010BD134607B540B1002200926A
:105210000A460621FFF779FF03B05DF804FB012081
:10522000FAE7000007490302CA6803F4E06322F4C6
:10523000E0621204120C134343F0BF6343F40033E3
:10524000CB60704700ED00E070B5184CE368C3F325
:105250000223C3F10705042D03F1040628BF04252A
:10526000062E4FF0FF36A3F1030398BF002306FA82
:1052700005F521EA05019E40002801FA03F122EA22
:105280000602B8BF00F00F0041EA0203A8BF00F118
:1052900060404FEA0313B8BF0438DBB2ABBF00F580
:1052A0006140241880F80033237670BD00ED00E0E3
:1052B000002807DB01234109034A00F01F00834057
:1052C00042F82130704700BF00E100E0F8B5144615
:1052D000036871BBD3F8042422F4C01242EAC4422A
:1052E000C3F80424234B022C1A6838D0032C39D07D
:1052F000012C3AD142F040021A60FFF7D9F94FF47D
:10530000003607461B4DA640FFF7D2F9C01BB0F58B
:105310007A7F2DD8D5F8903036EA0303F4D14FF4D4
:1053200088530020D5F88020A3401343C5F880306F
:10533000F8BD0129D3F8042806D122F4C01242EAAC
:10534000C442C3F80428CDE7520341BFD3F8042C6C
:1053500022F4C01242EAC442C3F8042CC2E742F469
:105360008062C9E742F48042C6E742F00402C3E724
:105370000120DDE700600058012930B54FF002053B
:10538000046810D18571D4F800190B43C4F80039B2
:10539000C4F8C429D4F8F03343F4060343F02003DF
:1053A000C4F8F03330BD08444571D4F8001D0B43F8
:1053B000C4F8003DC4F8C42DD4F8F03343F00643DC
:1053C000ECE770B415461E4699B902230168437193
:1053D000D1F800253243C1F80025C1F8C455D1F8F1
:1053E000F03370BC43F4064343F02003C1F8F033BC
:1053F000704770BCFFF7C0BF022383710368D3F806
:10540000042842F00042C3F80428D3F8002942F0EF
:105410000802C3F80029704769B90368D3F8042467
:1054200042F00042C3F80424D3F8002542F00802F9
:10543000C3F800257047012901D1FFF7DDBF0368DC
:10544000D3F8042C42F00042C3F8042CD3F8002D0A
:1054500042F00802C3F8002D70470000184B10B549
:105460005A69C9B242F480325A611A6942F00102A3
:105470001A615A6942F480325A6100221A615A61F3
:105480005C695C611C6944F001041C611A615C691F
:1054900044F480345C611C6944F001041C615C6963
:1054A000044344F480345C611A615A6158690143D1
:1054B0005961196941F0010119611A6110BD00BFFC
:1054C0000070005810B5044668B103790BB90AF0B2
:1054D00073F903230020237101236071A071E0712F
:1054E000A060237110BD0120FCE700002DE9F04110
:1054F0000446FEB00D464FF4FC7268463F4912F078
:105500008CFC1CB901207EB0BDE8F081002DF9D0E3
:105510003B4B1A6822F001021A60696801291AD10E
:105520002A6842F404121A671A6842F001021A60EB
:10553000D3F8802042F0B04242F40412C3F8802035
:105540002A68B2F5807FD3F8842054D1012908D18C
:1055500042F01F0207E00229D4D12A6842F49012D7
:10556000E1E742F4F8520026264CC3F88420236871
:10557000234F23F0020323607E602369012043F060
:1055800001032361FFF796F82661D5F80880A36828
:105590005DF8382023F4FE4343EA022343F0280356
:1055A000A360382108201602FFF758FF1121E420DC
:1055B000FFF754FF0DEBC803D3F80480E3204FEA54
:1055C000182146F48036FFF749FF46F02806E3200D
:1055D0005FFA88F1FFF742FFA6602B680020B3F561
:1055E000807F0CBF07230F237B60236843F00203F7
:1055F0002360606087E742F4F852A9E72CB7117086
:10560000006000580070005830B558B152B10379AD
:105610001468013B012B3ED824F48033B3F5003FDE
:1056200002D1F9B1012039E0022914BF2346002339
:105630005568B4F5803F43EA0503056802D0B4F528
:10564000003F04D102292AD0926843EA022369B1BB
:10565000012924D1D5F80418154A0A401A43C5F87F
:1056600004280BE0B4F5403F2346E1D10168104A1D
:10567000D1F8044422401A43C1F804240368D3F843
:10568000042122F48042C3F80421D3F8042242F01A
:105690000102C3F8042202230371002030BDD5F8B3
:1056A000042C22F03F021343C5F8043CE6E700BF98
:1056B000C0C0FCFFF0B1032908D8DFE801F00209FF
:1056C0000F150D4B120242F001021A6100207047C3
:1056D000094B120242F001021A62F7E7064B12026E
:1056E00042F001021A63F1E7034B120242F0010299
:1056F0001A64EBE701207047006000580346F0B5DC
:10570000002861D0002A5FD0022902D190680628C3
:105710005AD85C1860791D79C0B2022DEEB253D10F
:1057200010F0FB0050D166711B68176849B9D3F8B7
:10573000002522F003023A43C3F8002501236371D8
:10574000F0BD0129D2E9015626D1D3F800291F491D
:1057500022F003023A43C3F80029D3F8C02922F00B
:105760000F023243C3F8C029D3F8CC290A402A4398
:10577000C3F8CC29F21F012A06D8D3F8DC290A4045
:105780002A43C3F8DC29D9E7092ED7D1D3F8DC297D
:105790000A4042EA5502F4E7D3F8002D22F0030252
:1057A0003A43C3F8002DD3F8C02D22F00F02324344
:1057B000C3F8C02DD3F8CC2D22F4FF4222F07F0293
:1057C0002A43C3F8CC2DB9E70120B9E70080FFFFD9
:1057D000F8B50E461F46044610B901252846F8BD07
:1057E0001D07FAD103684518D3F804326D79012DED
:1057F000F3D1DB07F1D5FFF769FD05460028ECD1B1
:10580000314620463A46069BFFF7DBFD31462046EF
:10581000FFF702FEE2E77047704770477047036882
:1058200070B5D3F8F86304467204D3F8F05312D578
:10583000690410D5D3F8F023002122F48042C3F884
:10584000F023826842F0040282604FF48042C3F881
:10585000FC23FFF7E1FF72050AD56B0508D54FF46D
:105860008062236800212046C3F8FC2309F084FFEE
:10587000B00516D5A90514D52368D3F8002552071D
:1058800007D5D3F8F02322F40642C3F8F02301220F
:1058900062714FF4007200212046C3F8FC2309F026
:1058A0007BFFF3050AD5E80508D54FF4807223681D
:1058B00000212046C3F8FC23FFF7ADFF310416D5C5
:1058C0002A0414D523680021D3F8F023204622F4BB
:1058D0000042C3F8F023A26842F00802A2604FF42D
:1058E0000042C3F8FC2304236371FFF796FFF30320
:1058F0000AD5E80308D54FF48032236801212046F9
:10590000C3F8FC23FFF787FF71030AD56A0308D5A4
:105910004FF48022236801212046C3F8FC2309F0BC
:105920002BFFB30316D5A80314D52368D3F8002999
:10593000510707D5D3F8F02322F40602C3F8F02369
:105940000122A2714FF4003201212046C3F8FC234A
:1059500009F022FF320216D52B0214D5236801214B
:10596000D3F8F023204622F40002C3F8F023A26803
:1059700042F01002A2604FF40002C3F8FC2304239B
:10598000A371FFF74AFFF0010AD5E90108D54FF0EE
:105990008072236802212046C3F8FC23FFF73BFFF7
:1059A00072010AD56B0108D54FF08062236802218D
:1059B0002046C3F8FC2309F0DFFEB00116D5A9018B
:1059C00014D52368D3F8002D520707D5D3F8F02358
:1059D00022F00642C3F8F0230122E2714FF0007278
:1059E00002212046C3F8FC2309F0D6FE002E16DA69
:1059F000002D14DA23680221D3F8F023204622F088
:105A00000042C3F8F023A26842F02002A2604FF0E7
:105A10000042C3F8FC230423E371FFF7FEFE700687
:105A200014D5690612D523682046D3F8F02322F056
:105A30004002C3F8F023A26842F00202A2604022B2
:105A4000C3F8FC2304232371FFF7E8FEB20614D544
:105A5000AB0612D523682046D3F8F02322F02002AB
:105A6000C3F8F023A26842F00102A2602022C3F82A
:105A7000FC2304232371FFF7D1FE70BD70477047EC
:105A8000704770477047704770470000B54B2DE96D
:105A9000F041D3F890600446B202D3F89480D3F872
:105AA0008050D3F884700DD5A9020BD5D3F880208F
:105AB00022F40012C3F880204FF40012C3F8002132
:105AC000FFF7DDFF320715D52B0713D52368032118
:105AD000D3F80035204613F0040FA24B1EBFD3F8B5
:105AE000802022F00802C3F880200822C3F8002199
:105AF000FFF7CAFF700715D5690713D52368022180
:105B0000D3F80035204613F0040F964B1EBFD3F890
:105B1000802022F00402C3F880200422C3F8002170
:105B2000FFF7B2FFB20715D5AB0713D523680121E4
:105B3000D3F80035204613F0040F8A4B1EBFD3F86C
:105B4000802022F00202C3F880200222C3F8002144
:105B5000FFF79AFFF00715D5E90713D52368002151
:105B6000D3F80035204613F0040F7E4B1EBFD3F848
:105B7000802022F00102C3F880200122C3F8002116
:105B8000FFF782FF320416D52B0414D523680321B6
:105B9000D3F80035204613F0040F724B1EBFD3F824
:105BA000802022F40042C3F880204FF40042C3F862
:105BB0000021FFF766FF700416D5690414D5236829
:105BC0000221D3F80035204613F0040F654B1EBFA9
:105BD000D3F8802022F48042C3F880204FF4804222
:105BE000C3F80021FFF74DFFB20416D5AB0414D55E
:105BF00023680121D3F80035204613F0040F594BD8
:105C00001EBFD3F8802022F40052C3F880204FF446
:105C10000052C3F80021FFF734FFF00416D5E90461
:105C200014D523680021D3F80035204613F0040F63
:105C30004C4B1EBFD3F8802022F48052C3F8802042
:105C40004FF48052C3F80021FFF71BFF320516D531
:105C50002B0514D523680321D3F80035204613F013
:105C6000040F404B1EBFD3F8802022F40062C3F81B
:105C700080204FF40062C3F80021FFF703FF700596
:105C800016D5690514D523680221D3F800352046BE
:105C900013F0040F334B1EBFD3F8802022F4806230
:105CA000C3F880204FF48062C3F80021FFF7EAFEBA
:105CB000B20516D5AB0514D523680121D3F80035FC
:105CC000204613F0040F274B1EBFD3F8802022F488
:105CD0000072C3F880204FF40072C3F80021FFF770
:105CE000D1FEF00516D5E90514D523680021D3F8B7
:105CF0000035204613F0040F1A4B1EBFD3F8802046
:105D000022F48072C3F880204FF48072C3F800211F
:105D1000FFF7B8FE320615D52B0613D523680321ED
:105D2000D3F80035204613F0040F0E4B1EBFD3F8F6
:105D3000802022F08002C3F880208022C3F8002156
:105D4000FFF7A1FE700619D5690617D52368022151
:105D5000D3F80035204613F0040F024B18BFD3F8D8
:105D6000802001E0006000581CBF22F04002C3F810
:105D700080204022C3F80021FFF785FEB20615D52A
:105D8000AB0613D523680121D3F80035204613F064
:105D9000040FB94B1EBFD3F8802022F02002C3F8B5
:105DA00080202022C3F80021FFF76DFEF00615D5F4
:105DB000E90613D523680021D3F80035204613F0F7
:105DC000040FAD4B1EBFD3F8802022F01002C3F8A1
:105DD00080201022C3F80021FFF755FE720013D572
:105DE0006B0011D5A44B2046D3F8802022F08042CE
:105DF000C3F880204FF08042C3F80021A36843F429
:105E00008073A360FFF70AFDB00013D5A90011D578
:105E1000994B2046D3F8802022F00052C3F880200E
:105E20004FF00052C3F80021A36843F40073A3604D
:105E3000FFF7F4FCF20013D5EB0011D58E4B204692
:105E4000D3F8802022F08052C3F880204FF0805297
:105E5000C3F80021A36843F48063A360FFF7DEFC6E
:105E6000300113D5290111D5834B2046D3F880206A
:105E700022F00062C3F880204FF00062C3F80021D6
:105E8000A36843F40063A360FFF7C8FC720113D555
:105E90006B0111D5784B2046D3F8802022F0806228
:105EA000C3F880204FF08062C3F80021A36843F458
:105EB0008053A360FFF7B2FCB00113D5A90111D53F
:105EC0006D4B2046D3F8802022F00072C3F880206A
:105ED0004FF00072C3F80021A36843F40053A3609D
:105EE000FFF79CFCF20113D5EB0111D5624B204664
:105EF000D3F8802022F08072C3F880204FF08072A7
:105F0000C3F80021A36843F48043A360FFF786FC35
:105F100018F0010F14D0F80712D50121564B204676
:105F2000D3F8802022F00102C3F88020C3F80411C6
:105F3000A36843F40023A36004232371FFF79EFDAD
:105F400018F0020F15D0B90713D54B4B0121D3F828
:105F50008020204622F00202C3F880200222C3F8EB
:105F60000421A36843F48023A36004232371FFF773
:105F700085FD18F0040F13D07A0711D53E4B01218F
:105F8000D3F88020204622F00402C3F880200422A7
:105F9000C3F80421A36843F40033A360FFF76EFD48
:105FA00018F0080F13D03B0711D5334B0121D3F85C
:105FB0008020204622F00802C3F880200822C3F87F
:105FC0000421A36843F48033A360FFF757FD18F062
:105FD000100F13D0F80611D5274B0121D3F88020DC
:105FE000204622F01002C3F880201022C3F80421BA
:105FF000A36843F40043A360FFF740FD18F4807FDB
:1060000016D0F90514D51C4B0221D3F88020204668
:1060100022F48072C3F880204FF48072C3F8042108
:10602000A36843F40023A36004232371FFF726FD34
:1060300018F4007F16D0BA0514D50F4B0221D3F8FF
:106040008020204622F40072C3F880204FF40072B2
:10605000C3F80421A36843F48023A36004232371BD
:10606000FFF70CFD18F4806F17D07B0515D5024B98
:106070000221D3F8802001E000600058204622F47D
:106080008062C3F880204FF48062C3F80421A368C3
:1060900043F40033A360FFF7F1FC18F4006F14D051
:1060A000380512D51F4B0221D3F88020204622F458
:1060B0000062C3F880204FF40062C3F80421A36893
